:020000040800F2
:10000000800800203902000841020008430200086D
:1000100045020008470200084902000800000000ED
:100020000000000000000000000000004B0200087B
:100030004D020008000000004F02000851020008B5
:10004000530200085302000853020008530200083C
:10005000530200085302000853020008530200082C
:10006000530200085302000853020008530200081C
:10007000530200085302000853020008530200080C
:10008000530200081D03000853020008000000008E
:100090000000000000000000000000005302000803
:1000A00053020008530200085302000853020008DC
:1000B00053020008530200085302000853020008CC
:1000C00053020008530200085302000853020008BC
:1000D0005302000853020008C50400080000000095
:1000E00053020008530200085302000800000000F9
:1000F00000000000000000000000000053020008A3
:1001000000000000530200085302000853020008D8
:1001100000000000000000000000000000000000DF
:10012000530200085302000853020008530200085B
:100130005302000800000000000000000000000062
:100140000000000000000000000000005302000852
:10015000530200085302000853020008530200082B
:1001600053020008530200080000000000000000D5
:10017000000000000000000000000000000000007F
:100180000000000053020008000000000000000012
:10019000530200085302000800F002F800F03CF897
:1001A0000AA090E8000C82448344AAF10107DA45D2
:1001B00001D100F031F8AFF2090EBAE80F0013F0E8
:1001C000010F18BFFB1A43F0010318472C08000069
:1001D0004C080000103A24BF78C878C1FAD85207FA
:1001E00024BF30C830C144BF04680C6070470000B1
:1001F0000023002400250026103A28BF78C1FBD830
:10020000520728BF30C148BF0B6070471FB500F0D0
:10021000EDFA1FBD10B510BD00F031F81146FFF723
:10022000F5FF00F0E1F900F04FF803B4FFF7F2FF3B
:1002300003BC00F057F80000094880470948004710
:10024000FEE7FEE7FEE7FEE7FEE7FEE7FEE7FEE786
:10025000FEE7FEE704480549054A064B70470000E3
:100260007104000899010008800200208008002025
:100270008004002080040020704770477047754656
:1002800000F02CF8AE4605006946534620F0070002
:10029000854618B020B5FFF7DDFFBDE820404FF0E0
:1002A00000064FF000074FF000084FF0000B21F060
:1002B0000701AC46ACE8C009ACE8C009ACE8C0092D
:1002C000ACE8C0098D46704710B50446AFF3008016
:1002D0002046BDE81040FFF7A8BF00000048704767
:1002E0001C02002001491820ABBEFEE726000200D8
:1002F0007047000030B54FF6FF72074B07E010F86B
:10030000015BD4B26C4033F8144084EA1222491ED7
:10031000C9B2F4D210B230BDF8070008054810B5D4
:100320004168890205D5C16841F40011C16000F03F
:1003300065F910BD0060024026482549C0F89010BC
:10034000254AC0F89420FF22C0F88C2050F8882F4E
:1003500042F0006240F85829826D22F0C0028265A6
:10036000826D22F4C0428265826D22F4C0528265A1
:10037000826D42F480628265826D42F00102826584
:1003800081671649C167016F41F000610167016F24
:1003900041F040010167016F21F4C0410167016F25
:1003A00021F4C0510167016F41F48061016750F889
:1003B000241C41F4001140F8241C016F41F010018D
:1003C00001674FF0E0214FF40030C1F800017047A1
:1003D00004440040006002401C0000201B0100207B
:1003E0002148016821F480010160016841F0100199
:1003F0000160016841F440510160016821F440311D
:100400000160011D086820F0F0000860086840F4F1
:10041000805008601548026842F0030202601248EA
:10042000001F026842F0807202600268D201FCD5AF
:100430000A6842F002020A600A681207FCD50168E5
:1004400021F00101016008482C30016841F00101F0
:10045000016005493C310A6842F400320A600168D3
:1004600041F400110160704704380240003C024032
:100470001048016841F4700101600F48016841F0C3
:10048000010101600C4A00210832116002680B4B27
:100490001A400260031D0A4A1A60026822F4802290
:1004A000026005480C300160024958068039086036
:1004B0007047000088ED00E000380240FFFFF6FEC4
:1004C000103000241F4910B50868204B04071E484F
:1004D00001F1040215D51468D0F8884024F0010415
:1004E000C0F88840C46844F40064C460C0F8943024
:1004F000FF24C0F88C40D0F8884044F00104C0F8D4
:1005000088400968C90619D5116850F8881F21F07C
:100510000101016040680E4AC0F1FF00107000F058
:1005200019F801280BD00948FF38407880305870FE
:10053000012098700320507000F0D2F810BD506870
:100540008047F9E700440040006002401B010020A2
:1005500000000020084890F901100848032905D040
:10056000062905D00021416008467047044900E093
:1005700004494160012070471C0000200000002059
:10058000210600081107000870B549F6A546851B2D
:100590000123144CB04218D00DDC124CA0F51C40C5
:1005A000A0F14100A4F10A0405280CD2DFE800F014
:1005B0000D0F11131500012D09D0022D09D0032DA7
:1005C00009D0042D09D0002070BD208806E0608885
:1005D00004E0A08802E0E08800E020890880137031
:1005E000012070BD12000020FFF7FAFE4FF4E13049
:1005F00000F090F8FFF7A0FE62B6FEE7074850F85B
:10060000881F21F0010140F87C19016841F4006164
:100610000160C16F41F00101C16770470060024095
:100620002DE9FC5FDFF8B08098F9022098F90310FB
:1006300062F31F21894698F9041098F90560DFF8E4
:100640009CB061F31F267000002547B22C4608F1CC
:10065000FF0A13E009EB050080B201AA6946FFF723
:1006600093FF58B3BDF800100AEB04030A12DA70C6
:10067000641C0AEB0400C170641C6D1CB542E9DB0C
:1006800098F8010054468AF801008AF802707F1D2C
:100690005D468BF801709BF80100801EC1B20E48C8
:1006A000FF30FFF727FE6978214401F8020C6978D2
:1006B0000012214401F8010CBDE8FC9F98F80110DC
:1006C00080318AF8011002218AF8021003218BF888
:1006D000011000F005F8D0E71C0000200000002009
:1006E000094850F8A01F21F00101016050F8941C46
:1006F00041F4001140F8941C0449497841600168B4
:1007000041F00101016070470060024000000020DC
:1007100070470000304910B50A6842F020020A60B4
:100720000A6842F080020A608A6842F030028A60F9
:100730008A6842F0C0028A600A6A42F470620A6201
:100740000A6A22F400620A620A6A42F470420A6289
:100750000A6A22F400420A6220490A6842F40052FE
:100760000A600A6822F480520A600A1D136823F4A2
:1007700040531360121D136843F080031360136825
:1007800043F0400313600B1FB0F5165F03D040F237
:10079000A1141C6002E041F288301860086840F043
:1007A00008000860086840F004000860086840F02D
:1007B00010000860106840F001001060086820F424
:1007C0000040086006494020C1F80001054806497C
:1007D0000078087010BD0000000002400C4400408A
:1007E00004E000E0F60700081B0100204FF0407015
:1007F000E1EE100A7047FF000000C1C081C1400156
:1008000001C3C003800241C201C6C006800741C7C0
:100810000005C1C581C4400401CCC00C800D41CD90
:10082000000FC1CF81CE400E000AC1CA81CB400B60
:1008300001C9C009800841C801D8C018801941D930
:10084000001BC1DB81DA401A001EC1DE81DF401FC0
:1008500001DDC01D801C41DC0014C1D481D54015D0
:1008600001D7C017801641D601D2C012801341D3E0
:100870000011C1D181D0401001F0C030803141F170
:100880000033C1F381F240320036C1F681F74037C0
:1008900001F5C035803441F4003CC1FC81FD403D90
:1008A00001FFC03F803E41FE01FAC03A803B41FB60
:1008B0000039C1F981F840380028C1E881E94029B0
:1008C00001EBC02B802A41EA01EEC02E802F41EFC0
:1008D000002DC1ED81EC402C01E4C024802541E5D0
:1008E0000027C1E781E640260022C1E281E34023E0
:1008F00001E1C021802041E001A0C060806141A1F0
:100900000063C1A381A240620066C1A681A74067BF
:1009100001A5C065806441A4006CC1AC81AD406D8F
:1009200001AFC06F806E41AE01AAC06A806B41AB5F
:100930000069C1A981A840680078C1B881B940792F
:1009400001BBC07B807A41BA01BEC07E807F41BFBF
:10095000007DC1BD81BC407C01B4C074807541B5CF
:100960000077C1B781B640760072C1B281B34073DF
:1009700001B1C071807041B00050C190819140516F
:100980000193C053805241920196C05680574197BF
:100990000055C19581944054019CC05C805D419D8F
:1009A000005FC19F819E405E005AC19A819B405B5F
:1009B0000199C059805841980188C04880494189AF
:1009C000004BC18B818A404A004EC18E818F404FBF
:1009D000018DC04D804C418C0044C18481854045CF
:1009E0000187C047804641860182C04280434183DF
:1009F0000041C18181804040180A000800000020A9
:100A00001C000000D4010008340A00081C0000206B
:100A100064080000F0010008000000000000000071
:100A200001000200030004000500FFFFFEFFFDFFC0
:040A3000FCFFFBFFCD
:0400000508000239B4
:00000001FF
